:020000040800F2
:10000000887F00209D010008A5010008A7010008C5
:10001000A9010008AB010008AD01000800000000C4
:10002000000000000000000000000000AF01000818
:10003000B101000800000000B30100086B300008A7
:10004000B7010008B7010008B7010008B7010008B0
:10005000B7010008B7010008F5040008B70100085F
:10006000B7010008B7010008B7010008B701000890
:10007000B7010008B7010008B7010008B701000880
:1000800045040008B7010008B7010008B7010008DF
:10009000B7010008B7010008B7010008B701000860
:1000A000B7010008B7010008B7010008B701000850
:1000B000B7010008B7010008B7010008B701000840
:1000C000B7010008B7010008B7010008B701000830
:1000D000B7010008B701000851360008B701000851
:1000E000B7010008B7010008B7010008B701000810
:1000F000B7010008B7010008B7010008B701000800
:10010000B7010008B7010008B7010008B7010008EF
:10011000B7010008B7010008B7010008B7010008DF
:10012000B7010008B7010008B7010008B7010008CF
:10013000B7010008B7010008B7010008B7010008BF
:10014000B7010008B7010008B7010008212F000817
:10015000B7010008B7010008B7010008B70100089F
:10016000B7010008B7010008B7010008B70100088F
:10017000B7010008B7010008B7010008000000003F
:10018000B7010008B7010008DFF80CD000F0AEF8A6
:1001900000480047E5510008887F00200648804756
:1001A00006480047FEE7FEE7FEE7FEE7FEE7FEE75C
:1001B000FEE7FEE7FEE7FEE72D31000889010008B3
:1001C0002DE9F05F0546002092469B46884606468C
:1001D000814640241BE0284641464746224600F01F
:1001E00074F853465A46C01A914110D31146184626
:1001F000224600F05BF82D1A67EB01084F462246B5
:100200000120002100F052F817EB00094E41201E9A
:10021000A4F10104DFDC484631462A464346BDE8E6
:10022000F09F10B5431A934209D28318881803E04F
:1002300010F8011D03F8011D521EF9D210BD40EA4D
:1002400001039B0703D009E008C9121F08C0042A54
:10025000FAD203E011F8013B00F8013B521EF9D23B
:1002600010BDD2B201E000F8012B491EFBD270474D
:100270000022F6E710B513460A4604461946FFF772
:10028000F0FF204610BD421E12F8013F002BFBD1AB
:1002900011F8013B02F8013B002BF9D17047421CD9
:1002A00010F8011B0029FBD1801A7047202A04DBBB
:1002B000203A00FA02F1002070479140C2F1200379
:1002C00020FA03F3194390407047202A04DB203AB8
:1002D00021FA02F00021704721FA02F3D040C2F166
:1002E000200291400843194670470000064C074D14
:1002F00006E0E06840F0010394E8070098471034F6
:10030000AC42F6D3FFF744FF4C5500086C5500088B
:1003100070B58C1810F8015B15F0070301D110F8C7
:10032000013B2A1106D110F8012B03E010F8016BF4
:1003300001F8016B5B1EF9D12B0705D40023521E77
:100340000DD401F8013BFAE710F8013BCB1A921CDF
:1003500003E013F8015B01F8015B521EF9D5A142DD
:10036000D8D3002070BD00207047002070470000E7
:1003700010B500220449054803F040FA0449034837
:1003800003F036FA002010BD84170020700700200B
:10039000840F00202DE9F0410C4607460146144821
:1003A00003F026FA124803F007FA2568114C20687A
:1003B0004FF400764119B1420F48216809D9D1F5AF
:1003C000007204D0216808443946FFF72AFF2660EE
:1003D00007E008442A463946FFF723FF20682844EF
:1003E00020600649012008700020BDE8F08100006F
:1003F00070070020040000201003002000000020EF
:10040000094A10B5D2F81822D2F814220AB10120F4
:1004100010BD0A460146044803F0F0F9BDE810405B
:10042000014803F02BBA0000700700200448D0F800
:100430001802D0F81402002800D0012070470000F4
:1004400070070020014800F06BB800001007002082
:1004500001681823CAB2103AB2FBF3F2054B6FF3EE
:100460000901032A9B5CC36500D9091D8165084603
:10047000704700002A55000810B5014600208B691E
:100480008A6A4FF0C07453B1B3F5005F15D072B1F2
:10049000012A0CD0022A0AD0032A09D104E01AB199
:1004A000012A06D0022A03D1C96AC90100D5012058
:1004B00010BDC96AA142FAD010BD002AF7D0012AA6
:1004C000F2D0022AF3D0032AF3D010BD30B504686D
:1004D000256825F480252560046863608368402BC7
:1004E000036803D099600068C26030BD9A600068FC
:1004F000C16030BD012000F09DB990F8351002298F
:1005000003D08021416501207047052180F8351016
:100510000068016821F001010160002070470000BF
:100520002DE9F84304464FF00009CDF800906348E8
:100530004FF41651A56D0068B0FBF1F72E6894F8E2
:100540005C10082000FA01F131420FD021680A68DE
:1005500052070BD50A6822F004020A6094F85C1076
:100560008840A860606D40F00100606594F85C1000
:100570004FF0010808FA01F0304208D021684969BB
:10058000090604D5A860606D40F00200606594F82B
:100590005C1004208840304208D02168096889072F
:1005A00004D5A860606D40F00400606594F85C10AC
:1005B00010208840304218D021680968090714D5F6
:1005C000A86020680168490304D50068000308D5C5
:1005D000A16C07E00168C90503D4016821F0080196
:1005E0000160216C09B12046884794F85C102020F6
:1005F0008840304231D021680968C9062DD5A860ED
:1006000094F8350005282068016806D0490347D5CD
:10061000006800031DD4616C1CE021F0160101602C
:100620002068416921F080014161206C08B9A06C0B
:1006300020B12068016821F00801016094F85C1085
:100640003F208840A86084F8349084F83580216D7C
:100650001FE0E16B09B120468847606D00282BD070
:10066000606DC00714D0052084F83500206801684B
:1006700021F0010101600098401C0090B84203D8AD
:1006800020680068C007F6D184F8349084F835807B
:10069000E16C002910D001B02046BDE8F0430847C6
:1006A0000168C905D5D4016821F01001016084F802
:1006B000349084F83580CCE7BDE8F8834001002011
:1006C0002DE9F041044600F0A3F906465CB100258F
:1006D00084F83450022084F835002068016821F045
:1006E000010101600DE00120BDE8F08100F090F90A
:1006F000801B052805D920206065032084F835007B
:10070000F2E720680068C007F0D12268116820482D
:100710000140D4E901031843D4E9033633431843B5
:1007200063691843A3691843E3691843236A1843AC
:100730000843616A042903D1D4E90B131943084320
:10074000106020684069666A20F0070130460E4359
:10075000012704280CD1A06A0643E06A40B1204674
:10076000FFF78AFE20B14020606584F83570BAE753
:10077000206846612046FFF76BFE94F85C203F211D
:1007800091408160656584F835700020ACE7000019
:100790003F8010F02DE9F0410446866D90F834005A
:1007A000002501280DD0012084F8340094F835701C
:1007B0000020012F07D084F8340002252846BDE828
:1007C000F0810220FBE7022784F83570606520463F
:1007D000FFF77CFE94F85C103F208840B0602068F2
:1007E000016841F0160101602068416941F0800113
:1007F0004161206C20B12068016841F0080101606E
:100800002068016841F001010160D7E770B5044636
:1008100000F0FEF80546601C02D00448007804444D
:1008200000F0F6F8401BA042FAD370BD340100205E
:1008300070470000044910B50A68024202D00860FF
:10084000FFF7F6FF10BD0000143C01402DE9F84F02
:10085000DFF87CB100224FF001084FF0030A4FF09F
:100860000F090BF1040E00BF0B6808FA02F42340D5
:10087000A3426ED14D68022D01D0122D0ED1D508A4
:1008800000EB850CDCF820505607F70E09FA07F646
:10089000B5430E69BE402E43CCF820600668550073
:1008A0000F790AFA05FC07F0030726EA0C06AF40A9
:1008B000374307604E68012E05D0022E03D0112E5B
:1008C00001D0122E0ED18668CF6826EA0C06AF4002
:1008D000374387604668A6430C79C4F300149440FC
:1008E00034434460C6688C6826EA0C06AC40344346
:1008F000C4604C68E40065D5364C256845F48045F5
:100900002560246822F0030504F480440094324CEE
:100910002E19D6F8084895072F0F09FA07F5AC43AA
:100920002E4DA84201D1002524E02D4DA84201D131
:1009300001251FE02B4DA84201D102251AE02A4DC6
:10094000A84201D1032515E0284DA84202D1042573
:1009500010E037E0264DA84201D105250AE0254DDB
:10096000A84201D1062505E0234DA84201D1072563
:1009700000E00825BD402543C6F80858DBF80040D4
:100980005D464E689C43F60300D51C432C60DEF8A0
:10099000004075464E689C43B60300D51C432C604E
:1009A0000B4D08352C684E689C43F60200D51C435D
:1009B0002C60074D0C352C684E689C43B60200D560
:1009C0001C432C60521C102AFFF44EAFBDE8F88F78
:1009D000003C014044380240003001400000024029
:1009E0000004024000080240000C024000100240D7
:1009F0000014024000180240001C024042694A40B4
:100A0000426170470AB1816170470904FBE7000049
:100A100001488068704700003401002070B5040070
:100A200004D094F83D00002510B106E0012070BD0F
:100A300084F83C50204600F075F8242084F83D00EE
:100A40002068016821F00101016001F055F9334986
:100A50002268B0FBF1F15160314A6368934206D9D4
:100A60004FF4967359434FF47A73B1FBF3F1236853
:100A7000491C1962616891420BD84900B0FBF1F240
:100A8000C2F30B02042A01D2042019E0B0FBF1F0FA
:100A900016E0A3689BB301EBC10202EB0112B0FBAD
:100AA000F2F242F48042120530D04BB301EBC102A6
:100AB00002EB0111B0FBF1F040F4804040F4004043
:100AC0002168C861D4E90701084321680860D4E9B6
:100AD0000310084321688860D4E9050108432168B0
:100AE000C8602068016841F0010101602564202090
:100AF00084F83D00256384F83E50002070BD00E07E
:100B000006E001EB4102B0FBF2F2CCE70120D7E7AF
:100B100001EB4101B0FBF1F0D0E7000040420F00D3
:100B2000A086010000B500680E4987B0884217D141
:100B30004FF41070009012200190012002900020CC
:100B400003900420049069460748FFF77FFE07489A
:100B5000016841F400110160006800F40010059084
:100B600007B000BD0054004000040240403802407D
:100B70002DE9FE43044600688168744D744E4FF0C1
:100B800040270291A84201D1314600E039468968E8
:100B90000191C1694FF00108C1F3012102290AD076
:100BA000C16911F4407F06D00199890773D5A84225
:100BB00067D1304666E00299890707D54068C0438F
:100BC000000603D40021204601F090FF0198C007E1
:100BD0000DD02068A84201D1304600E03846406878
:100BE000C043400603D40121204601F03BFF019899
:100BF0004FF65F79400628D52068A84201D13146DA
:100C000000E039464968C94389061ED4A84201D18B
:100C1000304600E03846406820F0600101D130469F
:100C200000E0384641602068416801EA09014160FE
:100C30002068C1688068009084F84180606C40F052
:100C400002006064204600F086F8029800077BD519
:100C500020684168C943890676D4416801EA0901E0
:100C600041602068A84201D1304600E03846406823
:100C700020F0600000D03E467060206880680090E0
:100C800057E0384640686FEA0000000603D40121AF
:100C9000204601F02BFF0298C00708D0206840686A
:100CA000C043400603D40021204601F0DBFE029839
:100CB0004FF69F7940061FD520684168C9438906D1
:100CC0001AD4416801EA090141602068A84201D1B3
:100CD000304600E03846406820F0A00101D130469F
:100CE00000E03846416084F84180606C40F00200CA
:100CF0006064204600F02FF80198000724D5206892
:100D0000A84201D1314600E039464968C943890605
:100D10001AD4A84201D1304600E03846406820F09D
:100D2000A00000D03E4670602068416801EA0901D9
:100D3000416084F84180606C40F0040060642046AB
:100D4000BDE8FE4300F007B8BDE8FE830038004070
:100D500000340040704770472DE9F05F04004FF009
:100D600002064FF000074FF010052CD04FF002099B
:100D7000C84684F8419054486063204600F0ACF8BF
:100D80002068C16940F6BF7A21EA0A01C161216881
:100D9000C1F820802068D0F81C8060694FF4007B87
:100DA000022835D0E06800B12025A068202800D8AE
:100DB0006D00012000F036FE2169594525D1E1681A
:100DC00021B1A90003E00120BDE8F09FE900B0FBDC
:100DD000F1F000BF00EB800061694000B0FBF1F072
:100DE000401D0A21B0FBF1F101F00100091AC1F325
:100DF0004F060702B01EFE280AD3606C40F01000B8
:100E000060642046FFF7A7FFDDE7B0FBF5F0E1E700
:100E1000206921683E4330430862A0882189228BE3
:100E20000843A1891143084380B2216840EA0800C1
:100E300040F40060C861206A01283AD12348606309
:100E400023482168234A4FF04023814201D11146B3
:100E500000E01946C96921EA0A0101D1154600E0FE
:100E60001D46E96125684946854201D1154600E0E5
:100E70001D4629622568854201D1114600E01946C8
:100E8000CE69616859451BD0D1B100212789B4F8DA
:100E90000CC047EA0C07B4F818C04CEA010C47EA4A
:100EA0000C07B9B2314341F40061854200D01A46C3
:100EB000D16100206064012084F84100002083E7B4
:100EC0004FF48071E2E70000712B0008710B0008FD
:100ED000003800400034004070B50068134986B007
:100EE000884220D112480024016841F40041016089
:100EF0000068022500F40040059010200090CDE924
:100F000001540626CDE9034669460A48FFF79EFCD0
:100F10004FF4A4500090CDE90154CDE90346694651
:100F20000548FFF793FC06B070BD0000003C004090
:100F300040380240000002400008024070477047FD
:100F400002488168027811448160704734010020B2
:100F50000B4810B5016841F400710160016841F46B
:100F600080610160016841F480710160032000F03C
:100F700097F8002000F006F800F024F8002010BDDB
:100F8000003C024070B50D4D04464FF47A7128784C
:100F9000B1FBF0F00A490968B1FBF0F001F043FB46
:100FA00048B9102C07D200222146501E00F058F8F4
:100FB00000206C6070BD012070BD00003401002075
:100FC000400100201F4808B5016841F480410160DC
:100FD000006800F4804000901A48001F016841F04A
:100FE00080510160006800F080500090072000F000
:100FF00057F8002211466FF00B0000F031F8002284
:1010000011466FF00A0000F02BF8002211466FF035
:10101000090000F025F800221146501F00F020F8CA
:1010200000221146101F00F01BF800221146901EEE
:1010300000F016F80022BDE808401146501E00F0EE
:101040000FB800004438024000F01F020121914017
:101050004009800000F1E020C0F800117047000056
:10106000F0B40E4B1B680C46C3F30223C3F1070513
:10107000042D00D90425191D072901D2002300E001
:10108000DB1E012606FA05F1491E214099409E40CB
:10109000761E16403143F0BC01F032BF0CED00E08B
:1010A000064900F0070208684FF6FF03184040EABF
:1010B0000220034A10430860704700000CED00E076
:1010C0000000FA050068416200207047F0B5006832
:1010D0000023446A31B1856A4FF4827604EB1544EB
:1010E0004D1E0AE044EA024181620FE006EB8307ED
:1010F000C7595B1C04EB1744DBB2AB42F6DB4FF481
:10110000807303EB810144EA024242500020F0BDAB
:10111000D0F8EC0302F0E6BDC1EBC10200EB8202A5
:10112000D0F8EC03526C02F053BDC1EBC10200EBEE
:101130008202D0F8EC03D2F8042202F09EBDD0F86F
:10114000EC0302F0D1BD10B504460A460B0601F0CF
:101150007F00C0EBC00104EB810101D5383101E013
:1011600001F5FC710870D009487094F8B8030128A3
:1011700009D0012084F8B803206803F0A1F9002009
:1011800084F8B80310BD022010BD70B50A460446AD
:10119000090602F07F0005D5C0EBC00104EB810118
:1011A000383105E0C2EBC20104EB810101F5FC71AD
:1011B00000258D700870D009487094F8B803012894
:1011C00009D0012084F8B803206803F05AFB84F8A2
:1011D000B853002070BD022070BD01F00F01C1EBBB
:1011E000C10100EB8100B0F8100280B2704770B509
:1011F00004460D460E0601F07F00C0EBC00104EB73
:10120000810101D5383101E001F5FC71ED0908706B
:101210004D708A60CB7000D0C8800025022B00D1B1
:101220000D7194F8B803012809D0012084F8B8039F
:10123000206803F099F8284684F8B85370BD02205E
:1012400070BD70B50C4601F07F05C5EBC50100EB24
:101250008101C1F80C32C1F804220023C1F8103218
:1012600081F8F93181F8F851036901F5FC71012B1E
:1012700000D10A616206027C006803D003F062FBC1
:10128000002070BD03F03EFAFAE770B50D46044643
:10129000090605F07F0005D5C0EBC00104EB810114
:1012A000383105E0C5EBC50104EB810101F5FC71A6
:1012B00001228A700870E809487094F8B803012880
:1012C00007D084F8B823206803F00DFB680602D02D
:1012D00007E0022070BD217C04F56F72206803F0E6
:1012E000B1FA002084F8B80370BD70B50C4601F067
:1012F0007F05C5EBC50100EB8101CB644A64002387
:101300000B65012381F8393001F8385F0369012B3F
:1013100000D10A616206027C006803D003F012FB70
:10132000002070BD03F0EEF9FAE700002DE9F84F58
:10133000044600680026054603F058FC002875D1D5
:10134000206803F07CFC002870D0206803F077FC54
:10135000800704D52068416901F0020141612068DD
:1013600003F06DFC010304F56F704FF0010B4FF0BB
:10137000000A00904DD5206803F043FC074646E084
:10138000F80742D0F1B2206803F051FC8046C00754
:1013900028D005EB4612C2F808BB2069012811D1FC
:1013A000C6EBC60004EB8001D2F8102BD1F8000286
:1013B000C2F31202821AC1F81022D1F8042210449A
:1013C000C1F80402F1B22046FFF7AFFE2069012800
:1013D00008D13EB9D4F80C0220B920680121009A46
:1013E00003F030FA5FEA087007D5204600F0E6FA0D
:1013F00005EB46110820C1F8080B5FEAC86004D568
:1014000005EB46111020C1F8080B7F08761C002F51
:10141000B6D1206803F013FC40034FF040095ED5BD
:10142000206803F0E7FB0746002656E0D2E1F80704
:1014300051D0F1B2206803F0EBFB8046C00724D006
:10144000D5F834280BFA06F08243C5F8342805EBAA
:101450004610C0F808B92069012807D1C6EBC600BC
:1014600004EB8000D0E9101211444164F1B220462F
:10147000FFF752FE2069012807D136B9E06C20B988
:1014800020680121009A03F0DDF95FEA087004D5B5
:1014900005EB46110820C1F808095FEAC86004D5C9
:1014A00005EB46111020C1F808095FEA486003D532
:1014B00005EB4611C1F808995FEA887004D505EB81
:1014C00046110220C1F808095FEA086003D53146D9
:1014D000204601F02BFD7F08761C002FA7D1206845
:1014E00003F0ADFB00280DDAD5F8040820F0010068
:1014F000C5F80408204600F047FA2168486900F062
:1015000000404861206803F09AFB00050BD5D5F830
:101510000808C00702D0204600F06CFA2068416934
:1015200001F400614161206803F089FBC0044CD5DF
:10153000D5F8040820F00100C5F80408102120683F
:1015400003F024FB0020FF2107E000BF05EB401261
:10155000C2F80819C2F8081B401C62688242F5D81C
:101560004FF0FF30C5F81808D5F81C0840F00110FE
:10157000C5F81C08206B60B1D5F8840840F00B005A
:10158000C5F88408D5F8440840F00B00C5F84408B5
:101590000BE0D5F8140840F00B00C5F81408D5F896
:1015A000100840F00B00C5F81008D5F8000820F42A
:1015B000FE60C5F80008217C2068009A03F042F91B
:1015C0002168486900F480504861206803F037FBC7
:1015D00080047DD5206802F007FF2068C16821F4EF
:1015E0007051C160206803F0E3FA78B10320C4F8B9
:1015F0001490E06000F07AFB7749784A0144914208
:101600000AD22068C16841F4705158E04FF400706C
:10161000C4F80CA0606136E07149724A01449142FD
:1016200004D22068C16841F4605148E06E496F4AB5
:101630000144914204D22068C16841F450513EE017
:101640006B496C4A0144914204D22068C16841F45C
:10165000405134E06849694A0144914204D220680B
:10166000C16841F430512AE06549664A014491421B
:1016700004D22068C16841F4205120E06249421838
:1016800062498A4204D22068C16841F4105116E0D0
:101690005F49604A0144914204D22068C16841F424
:1016A00000510CE05C4908445C4988422068C168EC
:1016B00003D241F4E05102E00AE041F4C051C160BC
:1016C000204600F051F92068416901F40051416160
:1016D000206803F0B4FAC00636D52168886920F086
:1016E00010008861D5F8208008F00F00C0EBC00022
:1016F00004EB8007C8F3434007F5FC77022802D0CB
:10170000062812D01BE047F6F07018EA000F16D03A
:10171000C8F30A1290462846F96803F094FAF8686C
:101720004044F860B869404408E00822284600991F
:1017300003F089FAB969C8F30A100844B86120684F
:10174000816941F010018161206803F078FA000797
:1017500007D5204600F01CF92068416901F0080116
:101760004161206803F06BFAC00208D5F1B220464F
:1017700000F056F82068416901F480114161206849
:1017800003F05DFA800208D5F1B2204600F04CF873
:101790002068416901F400114161206803F04FFAAB
:1017A000400007D52046FFF7B3FC2068416901F0EF
:1017B00080414161206803F042FA40070AD5206861
:1017C0004568680702D52046FFF7B9FC20684168E4
:1017D00029434160BDE8F88F405327FF00350C00D6
:1017E000401E1BFF40420F0000DC0BFF804F120029
:1017F000808CF9FE20D6130060B6E5FE60E316008B
:1018000000D3CEFE40771B00C05BB3FEC091210029
:1018100000CA91FE20753800E05459FEE09C41005A
:10182000D0F8EC0302F0C2BAD0F8EC0302F0C0BA70
:10183000F0B58BB004004FF0000556D0032084F8BB
:10184000B903204600F054F8206802F055FF04F177
:10185000100128220F466846FEF7E3FC94E80F00CB
:1018600002F0DCFD0021206803F0FDF901260020D4
:10187000C5EBC50104EB810181F8396001F8385FDF
:10188000CD80C8708860C8606D1C48610F2DEFD393
:1018900000214FF4827300BFC1EBC10204EB82024E
:1018A00003EB810582F8F90182F8F811D18782F8FB
:1018B000FB01C2F80002C2F80402C2F80C0222685E
:1018C0005051491C0F29E7D3282239466846FEF7B4
:1018D000A8FC94E80F0002F06FFE84F8B96320685A
:1018E00002F05EFE00200BB0F0BD0120FBE700001F
:1018F00030B5006887B0B0F1A04F2ED100244FF46E
:101900000070CDE90004164D694628460294FEF7A2
:101910009DFF4FF4E05000900220CDE901040A2021
:10192000CDE9034069462846FEF790FF0D4801685F
:1019300041F0800101600B481030016841F48041A2
:1019400001600068002200F48040059011464320A9
:10195000FFF786FB4320FFF777FB07B030BD0000A1
:10196000000002403438024010B50446C06801212E
:1019700000B90021D4F8EC0302F070FAD4F8EC03BB
:10198000BDE8104002F039BAD0F8EC0302F054BAC6
:10199000D0F8EC0302F056BA10B5044690F8B8033C
:1019A000012809D0012084F8B803206803F071F9F8
:1019B000002084F8B80310BD022010BDD0F8EC233D
:1019C00000F56F71104602F05CBA10B5044690F84D
:1019D000B80301280CD0012084F8B803206802F075
:1019E000D3FD206803F0BCF8002084F8B80310BDD4
:1019F000022010BD10B50446D0F8EC0302F08EFAB8
:101A00002068D0F8001E41F00101C0F8001E206AD5
:101A1000002804D00248016841F00601016010BDB1
:101A200010ED00E001460020012907D110490968A6
:101A300011F4000103D0012900D10E4870470C4871
:101A4000001F01680068490200F03F0001D50A4903
:101A500000E00A49064AB1FBF0F07C321168C1F39C
:101A6000881141431068C0F30270B1FBF0F0704779
:101A7000083802400080BB0000127A000024F40005
:101A80002DE9F843054600684FF00109C1074FF002
:101A9000000601D1400727D5DFF80C81C8F868603F
:101AA000FEF7B6FF0746414C05E000BFFEF7B0FF6A
:101AB000C01B022857D820680001F7D4686881014C
:101AC000287A41EA0070394984310860C8F8689082
:101AD000FEF79EFF074604E0FEF79AFFC01B0228B0
:101AE00041D820680001F7D52878800752D52F48C3
:101AF0004030016841F08051016000682C4C00F0DA
:101B000080500090206840F480702060FEF780FFD5
:101B1000074604E0FEF77CFFC01B022823D820689C
:101B2000C005F7D5214C7034206810F4407020D0E7
:101B3000A98901F4407181421BD020681D4920F41D
:101B40004070C1F800900E6020602068C00710D07F
:101B5000FEF75EFF064641F2883707E0FEF758FFC2
:101B6000801BB84202D90320BDE8F88320688007B3
:101B7000F4D5E9680D48C1F301220830032A0BD0DF
:101B8000016821F4F81101602068A989C1F30B01F3
:101B9000084320600020E7E70268074B22F4F812B0
:101BA00019400A430260EFE7000047420038024054
:101BB00000700040400E4742FFFCFF0F2DE9F04748
:101BC0000E46050065D0DFF81481D8F80000F7B2A2
:101BD00000F00F00B04207D288F80070D8F800007B
:101BE00000F00F00B04254D128683D4C810712D557
:101BF000400703D5206840F4E050206028780007B3
:101C000003D5206840F4604020602068A96820F077
:101C1000F000084320602878C0072DD0304968685C
:101C20000839012812D0022813D0032811D00968DE
:101C3000890700292DDA216821F003010143216081
:101C4000FEF7E6FE814641F2883A0EE00968890314
:101C5000EFE709688901ECE7FEF7DAFEA0EB09017E
:101C6000514502D90320BDE8F0872068696800F07B
:101C70000C00B0EB810FEFD1D8F80010404601F016
:101C80000F01B14207D90770006800F00F00B042A1
:101C900001D00120E7E72878400705D52068E968EA
:101CA00020F4E050084320602878000706D520681B
:101CB000296920F4604040EAC100206000F03CF84F
:101CC0002168084AC1F30311515CC8400649086005
:101CD0000020FFF757F90020C5E70000003C024054
:101CE00008380240325500084001002001480068D1
:101CF0007047000040010020044805490068096859
:101D0000044AC1F38221515CC84070474001002061
:101D1000083802404255000804480549006809682F
:101D2000044AC1F34231515CC84070474001002071
:101D30000838024042550008154810B5006810F0F8
:101D40000C02144813D04110042A0FD0082A0ED1D7
:101D50000F4C241F2268236802F03F025B0207D564
:101D60002068C0F38810A0FB010106E0084610BD02
:101D70002168C1F38811A1FB00010023FEF720FABE
:101D80002168C1F30141491C4900B0FBF1F010BDCD
:101D9000083802400024F4002DE9F84F050076D001
:101DA0002878DFF8F8B2BE4CC00749D0DBF8001045
:101DB0005846C1F38101012908D00068C0F38100B1
:101DC00002280AD1201D0068400206D52068800341
:101DD00036D568680028E2D032E06868B0F5803F08
:101DE00010D0B0F5A02F206810D020F480302060F3
:101DF000206820F4802020606868A0B1FEF708FE0B
:101E000006460CE0206840F48030F4E740F480207F
:101E10002060F7E7FEF7FCFD801B642873D820687C
:101E20008003F7D50CE0FEF7F3FD064605E000BFA2
:101E3000FEF7EEFD801B6428F0D820688003F7D4FD
:101E40002878DFF8608280074FF000093ED5DBF884
:101E50000010584611F00C0F09D00068C0F3810043
:101E600002280BD18D48001F0068400206D420686C
:101E7000800715D5E868012809D111E0E868B8B1F4
:101E80000120C8F80000FEF7C3FD064605E002E1A8
:101E9000FEF7BEFD801B0228C0D820688007F7D55A
:101EA0002068296920F0F80040EAC10020600DE0B8
:101EB000C8F80090FEF7ACFD064604E0FEF7A8FD6A
:101EC000801B02281FD820688007F7D428780007D5
:101ED00022D5724E744869696C3671B10121016076
:101EE000FEF796FD074604E0FEF792FDC01B0228B0
:101EF00009D830688007F7D50EE0C0F80090FEF7EB
:101F000087FD074605E083E0FEF782FDC01B02283F
:101F10007ED830688007F7D42878400768D5DFF886
:101F20007CA100270AF1380ADAF80000C0000BD4BF
:101F3000DAF8001041F08051CAF80010DAF8000019
:101F4000012700F080500090584E3068C00510D432
:101F5000306840F480703060FEF75AFD009005E074
:101F6000FEF756FD0099401A022851D83068C00586
:101F7000F6D54A4EA868683601280FD00528306883
:101F800010D020F001003060306820F00400306094
:101F9000A868B8B1FEF73CFD00900FE0306840F053
:101FA0000100F4E740F004003060F7E7FEF730FD91
:101FB0000099411A41F28830814264D83068800724
:101FC000F4D50EE0FEF724FD009007E0FEF720FDBB
:101FD0000099411A41F28830814254D83068800714
:101FE000F4D42FB1DAF8001021F08051CAF80010B3
:101FF000A869C0B3DBF80010C1F3810102294AD0FF
:102000000228484607D0C8F86000FEF701FD00E04E
:1020100039E005463AE04746C8F86000FEF7F8FCAC
:10202000064604E0FEF7F4FC801B02282BD820684B
:102030008001F7D4D5E907010843A96A1C4A490879
:1020400002EB01416A6A41EA8211084395F82C10BB
:1020500040EA01611148001F016001203866FEF767
:10206000D7FC054605E014E0FEF7D2FC401B022831
:1020700009D820688001F7D50BE000BFFEF7C8FC47
:10208000401B022802D90320BDE8F88F2068800198
:10209000F4D40020F8E70120F6E7000008380240F9
:1020A0000038024000004742800E47420070004066
:1020B0000000FFFF70B5040005D00025A56294F86C
:1020C000510010B106E0012070BD84F85050204648
:1020D00000F030F8022084F851002068016821F0F7
:1020E00040010160D4E901010843D4E9031211431E
:1020F000084361690843218B01F400710843E169D9
:102100000843216A0843A16A084321680860A0695E
:10211000042101EA1040616A084321684860206890
:10212000C16921F40061C1616565012084F8510035
:10213000002070BD00B500680D4987B0884215D1F8
:102140000C480021026842F480520260006800F4EA
:1021500080500590E02000900220CDE9010105208B
:10216000CDE9031069460448FEF770FB07B000BDD7
:102170000030014044380240000002402DE9F84F91
:10218000044640680026984617460D464FF004095D
:10219000B0F5827F01D1A06890B194F85000012879
:1021A00019D04FF0010B84F850B0FEF731FC0090CD
:1021B00094F851004FF0000A01280ED002267FE06B
:1021C00084F8519013460A462046CDF8008000F06E
:1021D00031F9BDE8F88F0220FBE7002D6FD0002F0A
:1021E0006DD084F85190C4F854A0A563A787E78701
:1021F000C4F830A0A4F834A0A4F836A0C4F840A0D5
:10220000C4F844A0A0684FF40047B84204D1206845
:10221000016821F48041016020680168490603D407
:10222000016841F040010160E068B8B133E0206826
:102230008168C90706D0007B05F8010BE08F401EBE
:10224000E0870BE0B8F1000F23D0B8F1FF3F05D0D5
:10225000FEF7DEFB0099411A41451AD2E08F0028B3
:10226000E5D11BE020688168C90706D0C06825F861
:10227000020BE08F401EE0870DE0B8F1000F08D0A0
:10228000B8F1FF3F07D0FEF7C3FB0099411A414563
:1022900001D3032614E0E08F0028E3D16068B0F595
:1022A000827F0AD1A068B84202D0B0F5806F04D115
:1022B0002068016821F040010160606D00B10126D5
:1022C00084F851B084F850A0304682E72DE9F84FE9
:1022D000044690F850000026994617460D460128FE
:1022E0000DD04FF0010B84F850B0FEF791FB804603
:1022F00094F85100B246012804D0022694E002204E
:10230000BDE8F88F002D7BD0002F79D0032084F812
:102310005100C4F854A02563A786E786C4F838A006
:10232000A4F83CA0A4F83EA0C4F844A0C4F840A07F
:10233000A068B0F5004F04D12068016841F48041E5
:10234000016020680168490603D4016841F040013A
:102350000160E068B0F5006F606804D030B3E08ED3
:10236000012823D03EE010B1E08E01281AD135F8C3
:10237000021B206805E020688168890706D535F8CA
:10238000021BC160E08E401EE0860BE0B9F1000F39
:1023900034D0B9F1FF3F05D0FEF73AFBA0EB0801BE
:1023A00049452BD2E08E0028E5D11EE0216815F8C2
:1023B000010B087306E020688168890706D515F8C7
:1023C000011B0173E08E401EE0860BE0B9F1000FA7
:1023D00014D0B9F1FF3F05D0FEF71AFBA0EB0801BE
:1023E00049450BD2E08E0028E5D14B46012202215F
:1023F0002046CDF8008000F0EDFD10B1032613E07B
:1024000011E042464946204600F0D4FD18B10126AD
:102410002020606508E0A06818B92068C16880685D
:102420000090606D00B1012684F851B084F850A08E
:10243000304665E72DE9F84F044690F85000002635
:102440000A9F9A4693460D464FF0010801280ED088
:10245000012084F85000FEF7DBFA814694F8510021
:10246000616801280CD0B1F5827F07D102E002201B
:10247000BDE8F88FA16809B9042801D00226BDE0A3
:1024800055B1BBF1000F07D0BAF1000F04D094F89A
:102490005100012802D004E00126AFE0052084F8B5
:1024A000510000206065C4F838B0A4F83EA0A4F83C
:1024B0003CA02563A4F836A0A4F834A0206460648E
:1024C00020680168490603D4016841F040010160B9
:1024D000E068B0F5006F606804D0E8B3E08E0128D2
:1024E0003BD06AE010B1E08E01282ED1216835F88A
:1024F000020BC860E08E401EE08626E0B8F1000FB7
:102500000DD0E08E58B120688168890707D535F86D
:10251000021BC160E08E401EE0864FF00008E08F95
:1025200058B120688168C90707D0C0682BF8020B32
:10253000E08F401EE0874FF00108781C05D0FEF7C1
:1025400067FAA0EB0900B84246D2E08E0028D5D148
:10255000E08F0028D2D136E0FFE7216815F8010BA3
:102560000873E08E401EE08627E000BFB8F1000F40
:102570000DD0E08E58B120688168890707D515F81D
:10258000011B0173E08E401EE0864FF00008E08FD3
:1025900058B120688168C90707D0C0680BF8010BE3
:1025A000E08F401EE0874FF00108781C05D0FEF751
:1025B0002FFAA0EB0900B8420ED2E08E0028D5D148
:1025C000E08F0028D2D13B46012202212046CDF8DF
:1025D000009000F0FFFC08B103260FE04A463946A0
:1025E000204600F0E7FC18B101262020606505E0D8
:1025F000A06818B92068C16880680090012084F83C
:102600005100002084F85000304631E74FF0E021BF
:102610000428086903D020F004000861704740F0E6
:102620000400FAE7704710B5401EB0F1807F01D377
:10263000012010BD4FF0E02460610F21601700F011
:102640005FFC0020A06107202061002010BD10B5B4
:10265000FFF7E8FF10BD704770B5026804461068C8
:10266000D168536910F00F0F50D003F0010501F449
:10267000907635435DD0C20705D0CA0503D5E26B1D
:1026800042F00102E263420705D5DA0703D0E26BAC
:1026900042F00202E263820705D5DA0703D0E26B5B
:1026A00042F00402E263020705D5DA0703D0E26BC9
:1026B00042F00802E263E26B002A33D0800604D5C0
:1026C000880602D5204600F0C2FD20684069E16B13
:1026D000C0F38010090700D428B3204600F0A0FD05
:1026E0002068416949061AD5416921F040014161DC
:1026F000606BA0B11B490165606BFDF7FEFE002811
:1027000010D0606B016DBDE870400847830610D59E
:102710008B060ED52046BDE8704000F098BD2046DF
:10272000FFF799FF70BD2046FFF795FF0020E0639B
:1027300070BD030606D50B0604D52046BDE87040E3
:1027400000F022BF4006F3D54806F1D5D1682046F7
:1027500021F04001D160202184F8391000F080F987
:1027600070BD00008131000870B5040004D094F8F9
:102770003900002510B106E0012070BD84F8385002
:10278000204600F023F8242084F839002068C1682E
:1027900021F40051C160204600F0A0FD20680169CD
:1027A00021F4904101612068416921F02A014161D1
:1027B0002068C16841F40051C160E563202084F8BD
:1027C000390084F83A00002070BD000070B506465C
:1027D0000068204986B088423AD11F480025016828
:1027E00041F4003101600068694600F40030059052
:1027F0000C20009002200190012002900320039001
:10280000072004901548FEF721F8164C1448206064
:102810004FF00060C4E901054014C4E90350801082
:102820006561C4E90650256220466562FDF748FFF0
:1028300020B140F235110CA002F050FA746300226E
:1028400011462620A663FEF70BFC2620FEF7FCFBB4
:1028500006B070BD00440040403802400000024015
:1028600088600240100700202E2E2F436F72652FC4
:102870005372632F73746D3332663478785F686196
:102880006C5F6D73702E6300F8B5044690F83A00E3
:1028900020283CD1C1B3BAB394F83800012836D00F
:1028A000012084F83800A162A2850025E56322207A
:1028B00084F83A00636B1748D863636B1648186452
:1028C000636B1648D864606B134605650846666BF3
:1028D000216802463046091DFDF75CFF206801684B
:1028E0004168009184F83850C16841F48071C1603A
:1028F0002068416941F0010141612068416941F06E
:10290000400141610020F8BDFFE70120FBE7022004
:10291000F9E70000DB3100081732000891310008A8
:1029200030B5164CA1B0A51CE068C11700EB517181
:1029300021F00701431AE36004F110002A78C25421
:102940000FA1684602F0CCF96846FDF7A8FC0146E5
:10295000812800D30021684600F082F928784128B8
:1029600002D0422802D003E0012000E00020607085
:10297000E068401CE06021B030BD00000000002095
:10298000554152542072656365697665643A3078C2
:1029900025327820617420696E6465783A25640A6E
:1029A0000000000070472DE9F843044690F8390014
:1029B0001F4616460D46202850D1A5B19EB194F869
:1029C000380001284AD0012084F838004FF0000870
:1029D000C4F83C80212084F83900FEF719F8A68459
:1029E0008146E68426E00120BDE8F883E08C401EA5
:1029F000E084A0684B46B0F5805F4FF000024FF0D6
:102A000080012046009703D000F0EFFDE8B90DE00B
:102A100000F0EBFDC8B928882168C0F308004860C1
:102A2000206908B16D1C05E0AD1C03E0216815F8B4
:102A3000010B4860E08C0028D8D14B460022402191
:102A40002046009700F0D1FD08B10320CCE72020FC
:102A500084F8390084F838800020C5E70220C3E7F5
:102A6000704700002DE9F041C26A01261346046850
:102A7000921C39B11B491C4D4FF040278C4217D195
:102A80002C4616E0E168C2621980418E491E4186DB
:102A9000418E00290AD101684A684FF69F731A4097
:102AA0004A601BE080F84160FEF754F9BDE8F08110
:102AB0003C46E468C2621C80428E521E4286428EB0
:102AC000002AF3D102688A4201D1294600E0394642
:102AD000496821F0600100D03D466960418D0029C0
:102AE000E0D0E3E7003800400034004070B5426AAF
:102AF0000125941C0368446241B11B4912881B4C98
:102B00004FF040268B4216D1234615E01188D9603C
:102B1000418D491E4185418D00290BD101684A68CC
:102B20004FF65F731A404A6019E000BF80F84150C9
:102B3000FEF710F970BD3346DA60428D521E4285B1
:102B4000428D002AF6D102688A4201D1214600E076
:102B50003146496821F0A00100D034466160418EC1
:102B60000029E3D070BD0000003800400034004070
:102B7000FEB5016804468868019094F8410001257B
:102B8000042833D101984FF69F76C00716D04868C5
:102B9000C043400612D4CA682046E16A8B1CE36237
:102BA0000A80618E491E6186618E39B901684A6862
:102BB00032404A6080F84150FEF7C0F90198400663
:102BC00014D520684168C94389060FD44168314053
:102BD00041602068C1688068009084F84150606C52
:102BE00040F0020060642046FEF7B5F894F841001A
:102BF000032834D101984FF65F76800718D52068F6
:102C00004068C043000613D4616A20468A1C626291
:102C100022680988D160618D491E6185618D39B94D
:102C200001684A6832404A6080F84150FEF787F9EF
:102C30000198000713D520684168C94389060ED45E
:102C400041683140416020688068009084F84150BC
:102C5000606C40F0040060642046FEF77CF8FEBD26
:102C6000642201FB02F38AB201460148FFF79BBED2
:102C7000D00200202DE9F04F534887B000240168AE
:102C800041F010010160016801F010010591016837
:102C900041F004010160016801F00401059101683F
:102CA00041F080010160016801F080010591016837
:102CB00041F001010160016801F001010591016825
:102CC00041F002010160016801F002010591016813
:102CD00041F0080101600068DFF8F0B000F0080082
:102CE000059001220C215846FDF78CFEDFF8E0909C
:102CF000012211464846FDF785FEDFF8D8A04FF2C5
:102D00001008002241465046FDF77CFE0C20009042
:102D10000125CDE90154694658460394FDF796FD17
:102D20000095CDE90154694648460394FDF78EFDB0
:102D3000082000900226CDE901640527CDE903476C
:102D400069464846FDF782FD0420CDE90004DFF81E
:102D50008890694648460294FDF778FDA8020090E5
:102D6000CDE90164CDE9034769464846FDF76EFDAC
:102D7000CDF80080CDE90154694650460394FDF733
:102D800065FD2020CDE90004694650460294FDF718
:102D90005DFD12480095CDE9010469465846FDF7EE
:102DA00055FD0F480096CDE9010469465846FDF7E8
:102DB0004DFD002211460620FEF752F90620FEF7CF
:102DC00043F907B0BDE8F08F3038024000100240F0
:102DD00000080240000C02400004024000001110F4
:102DE000000012100B4810B5094901600A49416002
:102DF00000214FF480428160C0E90312416181618A
:102E0000C1610162FDF70AFE002800D0FEE710BD97
:102E100000540040DC010020A08601000A490B4854
:102E200010B54A15C0E9001200218160C0E9031203
:102E3000074AC0E90521C1610162FDF78DFF002845
:102E400000D0FEE710BD0000003C00403002002032
:102E5000007701000E4810B50C4901604FF48271F3
:102E6000416000218160C1604FF400720161C0E9DE
:102E700005122022C0E90721416281620A21C16254
:102E8000FFF718F9002800D0FEE710BD0030014020
:102E9000780200200B4810B5094901604FF4E13178
:102EA0004160002181600C22C160C0E9041281618F
:102EB000C161FFF759FC002800D0FEE710BD0000FB
:102EC00000440040D002002010B500220849094803
:102ED00000F049FE0849074801F04DF80749054848
:102EE00000F07EFCBDE81040024801F091B80000FF
:102EF00030000020700700209801002024010020ED
:102F00000907090E002806DA00F00F0000F1E020A2
:102F100080F8141D704700F1E02080F8001470471D
:102F20000148FEF703BA0000940900202DE9F84F8C
:102F30000F46C1EBC70100EB810582460668D5E963
:102F40001301441A286C3835A04200D20446E01C14
:102F50004FEA900806EB471916E0441AA868A04209
:102F600000D20446E01C4FEA90089AF81000009046
:102F7000A3B2FAB23046E96801F09CFEE86820444A
:102F8000E860A8692044A861D9F8180980B24045D2
:102F900005D9D5E90501814201D20028DDD134B936
:102FA0000120D6F83418B8408143C6F83418002000
:102FB000BDE8F88F38B50B46009204460022802108
:102FC00000F008F8002804D0606D40F02000606533
:102FD000032038BD2DE9F0411D4617460E46044634
:102FE000DDF8188035E0681C33D02DB1FDF710FDF9
:102FF000A0EB0800A8422CD32068416821F0E00132
:1030000041606068B0F5827F0BD1A068B0F5004FD9
:1030100002D0B0F5806F04D12068016821F0400132
:103020000160A06AB0F5005F0AD1206801684DF622
:10303000FF72114001602068016841F40051016095
:10304000012084F85100002084F850000320BDE8DE
:10305000F0812068806836EA000004D00020B84281
:10306000C1D10020F3E70120F9E710B5FDF768FFB3
:10307000BDE81040FFF7EBBA70B52A4896B00025BE
:10308000016841F080510160006800F080501590A7
:103090002548016841F4804101600068012600F480
:1030A000804015903004CDE9006002248001CDE914
:1030B0000640082008904FF4A870CDE909040720C5
:1030C0000B906846FEF768FE00B1FEE70CA90F20E2
:1030D00081E831004FF4A0500F904FF480501090D1
:1030E00005210CA8FEF76AFD00B1FEE7C020CDE97E
:1030F0001204119611A8FEF7C3FC00B1FEE7FEF71B
:10310000F5FD4FF47A71B0FBF1F0FFF78CFA042073
:10311000FFF77CFA00221146501EFDF7A1FF16B002
:1031200070BD000040380240007000401048016847
:1031300041F4700101600F48016841F00101016034
:103140000C4A00210832116002680B4B1A400260E1
:10315000031D0A4A1A60026822F4802202600548B0
:103160000C30016002495806803908607047000041
:1031700088ED00E000380240FFFFF6FE103000242A
:1031800010B5806B0021C185C184FFF764FA10BDC2
:1031900070B5846B2068406994F83910C0F3C01092
:1031A0000025212904D118B1E584204600F046F815
:1031B0002068406994F83A10C0F38010222904D1A5
:1031C00018B1E585204600F02BF8E06B40F01000C8
:1031D000E0632046FFF73FFA70BD10B50146806BF3
:1031E00009680968C90513D40021C1850168CA6846
:1031F00022F48072CA6001684A6922F001024A61C1
:1032000001684A6922F040024A61202180F83A10A0
:10321000FFF786FB10BD10B5806BFFF7C3FB10BD39
:103220000168CA6822F49072CA6001684A6922F093
:1032300001024A61202180F83A1070470168CA688B
:1032400022F0C002CA60202180F83910704710B502
:1032500090F83A10222901D0022010BD8168B1F502
:10326000805F11D00169002901681FD0496801F011
:103270007F03816A4A1C82620B70C18D491E09045A
:10328000090CC18518D026E00269816A002A02680B
:10329000526805D0D2B20A80816A491C8162ECE78B
:1032A000C2F308020A80816A891CF7E74A68816ACA
:1032B0004B1C83620A70E0E70168CA6822F49072CE
:1032C000CA6001684A6922F001024A61202180F83F
:1032D0003A10FFF725FB002010BD00002DE9F0415A
:1032E00004460068016921F44052E168114301611C
:1032F0002168C86849F20C6290432369A268E569B5
:103300001A4363692B431A430243CA602168486920
:1033100020F44072A06910434861E1696425B1F569
:10332000004F9748974A21684FF032083FD09142AA
:1033300001D081427CD1FEF7EFFC00EBC00101EB34
:10334000001061688900B0FBF1F6FEF7E5FC00EBC8
:10335000C00101EB001061688900B0FBF1F0B0FB27
:10336000F5F06FF01801484306EB800108EB0110FF
:10337000B0FBF5F000F0F006FEF7CEFC00EBC0016C
:1033800001EB001061688900B0FBF1F0B0FBF5F0D3
:1033900006EB0016FEF7C0FC00EBC00101EB0010CD
:1033A00061688900B0FBF1F7FEF7B6FCD2E091420C
:1033B00001D081423DD1FEF7AFFC00EBC00101EB33
:1033C000001061684900B0FBF1F0B0FBF5F00601B8
:1033D000FEF7A2FC00EBC00101EB001061684900A0
:1033E000B0FBF1F7FEF798FC00EBC00101EB001019
:1033F00061684900B0FBF1F0B0FBF5F06FF0180127
:10340000484307EB800108EBC100B0FBF5F000F08A
:10341000F80006EB4006FEF77FFC00EBC00101EB75
:10342000001061684900B0FBF1F7FEF775FC3CE065
:1034300055E0FEF761FC00EBC00101EB0010616894
:103440004900B0FBF1F0B0FBF5F00601FEF754FCCB
:1034500000EBC00101EB001061684900B0FBF1F71F
:10346000FEF74AFC00EBC00101EB00106168490067
:10347000B0FBF1F0B0FBF5F06FF01801484307EB3B
:10348000800108EBC100B0FBF5F000F0F80006EB9E
:103490004006FEF731FC00EBC00101EB0010616853
:1034A0004900B0FBF1F7FEF727FC00EBC00101EB90
:1034B000001061684900B0FBF1F0B0FBF5F06FF06F
:1034C0001801484307EB800108EBC100B0FBF5F0A1
:1034D00000F00700216830448860BDE8F081FEF705
:1034E0000BFC00EBC00101EB001061688900B0FB30
:1034F000F1F6FEF701FC00EBC00101EB0010616882
:103500008900B0FBF1F0B0FBF5F06FF01801484313
:1035100006EB800108EB0110B0FBF5F000F0F006BF
:10352000FEF7EAFB00EBC00101EB001061688900C7
:10353000B0FBF1F0B0FBF5F006EB0016FEF7DCFB9C
:1035400000EBC00101EB001061688900B0FBF1F7EE
:10355000FEF7D2FB00EBC00101EB001061688900AF
:10356000B0FBF1F0B0FBF5F06FF01801484307EB4A
:10357000800108EB0110B0FBF5F000F00F00A9E7A7
:10358000001401400010014090F83910212901D0A9
:10359000022070478168B1F5805F016A0BD04A1C38
:1035A0000262026809785160C18C491E0904090C45
:1035B000C1840ED017E009880268C1F30801516088
:1035C00001690029016A02D0491C0162ECE7891CEB
:1035D000FBE70168CA6822F08002CA600068C1681F
:1035E00041F04001C160002070472DE9F04198464C
:1035F00017460E460446069D1DE0681C1BD02DB1E3
:10360000FDF706FAA0EB0800A84214D92068C168AB
:1036100021F4D071C1602068416921F0010141614C
:10362000202084F8390084F83A00002084F838001B
:103630000320BDE8F0812068006836EA000004D06D
:103640000020B842D9D00020F3E70120F9E70000BC
:103650000148FFF701B80000D0020020D0F818029E
:1036600020B10021C0F814120846704702207047AC
:1036700070B50546D0F8184200F041FBC4F80C02C2
:10368000D5F8180248B1D5F81C12D4F80402CA685B
:1036900004F503719047002070BD022070BD70B525
:1036A00004460025812100F083FA0121204600F024
:1036B0007FFA8221204600F07BFAD4F8180250B13C
:1036C000D4F81C0204F5067440688047206801F0B5
:1036D00061FD00202060284670BD10B5D0E986410C
:1036E00059B194F80002FF2807D08B6894F80122A2
:1036F00021469847FF2084F80002002010BD0000FA
:103700000A210180004870474C01002020210180DF
:103710000048704778010020202101800048704750
:1037200058010020202101800048704778010020C6
:103730002DE9F0410446007C00254FF4007670B37B
:10374000402302228121204600F034FB4023022244
:103750000121204600F02EFB08230322822120466F
:1037600000F028FB4FF4077001F078FEC4F818024F
:10377000F0B10746D4F81C02006880470020C7F863
:103780001402C7F81802207CD7F8042290B1402315
:103790000121204600F021FB2846BDE8F081FFE72B
:1037A000334602228121204600F004FB3346CEE757
:1037B0000125F1E73346EBE710B5D0F8181269B1EF
:1037C000027C002AD1F8042205D04023012100F018
:1037D00004FB002010BD4FF40073F7E7022010BD7A
:1037E00002460220002902D00020C2F81C127047B5
:1037F000D0F81802C0F8041200207047D0F8180260
:10380000C0F81022C0F808120020704770B50646B4
:10381000D0F8185208780C4610F0600121D0202909
:1038200027D1E288AAB10006607807D5D6F81C1225
:103830008B6829469847E288294617E085F80002F8
:10384000A07985F80102E2882946304600F050F858
:103850000FE0D6F81C12607800228B68214698474A
:1038600007E060780A2804D103490122304600F0BD
:1038700059F8002070BD00004801002010B5D0F8B4
:10388000181289B1D1F814220AB1012010BD012209
:10389000C1F81422B1F8102293B2D1F80822812184
:1038A00000F045FB002010BD022010BD10B5D0F87F
:1038B000142252689047002010BD134610B50A46E6
:1038C000002100F08AFA002010BD134610B50A4608
:1038D000002100F02CFB002010BD10B50446802113
:1038E00000F0FCFA2046BDE81040002100F0F6BAD6
:1038F00010B50323C0F80821C0F8F431C0F80C213A
:1039000013460A46002100F068FA002010BD10B5E9
:1039100005210023C0F8F4111A46194600F05DFA9B
:10392000002010BD10B502238261C0F8F431C261DD
:1039300013460A46002100F0FAFA002010BD10B527
:1039400004210023C0F8F4111A46194600F0EFFADA
:10395000002010BD10B50A46024903A000F0E0F8AF
:10396000004810BD840D002057494E555342204356
:103970006F6E66696700000012200880004870477B
:103980005800002010B50A46024903A000F0C8F80C
:10399000004810BD840D002057494E555342204920
:1039A0006E74657266616365000000000420088023
:1039B000004870475400002010B50A46024903A091
:1039C00000F0AEF8004810BD840D002053544D693E
:1039D00063726F656C656374726F6E696373000008
:1039E00010B50A46024903A000F09AF8004810BD3D
:1039F000840D00204D4F552053544D3332000000AC
:103A000010B50A46024903A000F08AF8004810BD2C
:103A1000840D0020303030303030303030303141A3
:103A200000000000F8B5044648880D46010A082940
:103A300059D2DFE801F05804091758584E56D4F807
:103A40001012207C0A6822E0207C02260028D4F88C
:103A5000140205D0C16A68468847014646704FE0A7
:103A6000816AF8E7C0B203281ED005DC58B10128EE
:103A700010D0022837D112E004281AD005281DD012
:103A8000EE2830D11FE0D4F81012207C4A68694635
:103A900090471CE0D4F81012207C8A68F7E7D4F82D
:103AA0001012207CCA68F2E7D4F81012207C0A6950
:103AB000EDE7D4F81012207C4A69E8E7D4F8101238
:103AC000207C8A69E3E7D4F81402816B06E00146A2
:103AD00016E0207C38B9D4F81402416B6846884758
:103AE000F5E7207C20B129462046FFF7F6FEF8BD19
:103AF000D4F81402016B68468847014607204870D5
:103B0000BDF800000028F2D0EA88002AEFD08242F7
:103B100000D90246ADF800202046FFF703FFF8BDAC
:103B200070B5002300281DD00446002502E06D1C5E
:103B3000EDB2641C2678002EF9D1022404EB450472
:103B40001480CC545B1C0322CA5400245B1C06E086
:103B5000CA545B1CDAB28C54521CD3B2401C02789B
:103B6000002AF5D170BD10B580B1D0F8143213B170
:103B70000023C0F8143209B1C0F81012012180F8F6
:103B8000FC11027000F0C0F8002010BD022010BD32
:103B900010B50024D0F82002FDF7F7FA30B1012863
:103BA00001D0022801D0022400E00124204610BDEB
:103BB00010B50024D0F82002FDF7C5FA30B1012875
:103BC00001D0022801D0022400E00124204610BDCB
:103BD0002DE9F0411746044641B1D4F81402426978
:103BE0008AB394F8FC01032842D043E0D4F8F411DE
:103BF000002504F11400022933D1D0E902639E426A
:103C000007D9F31A83609AB239462046FFF75DFE62
:103C100012E04068B0FBF3F103FB1101A1B9984237
:103C200012D3D4F8F81188420ED200221146204651
:103C3000FFF74BFEC4F8F85100231A4619462046F8
:103C400000F0CBF80DE012E0D4F81402C16829B1FD
:103C500094F8FC01032801D1204688472046FFF74D
:103C600056FE94F80002012804D184F8005201E0C5
:103C7000204690470020BDE8F08170B51546044607
:103C800041B1D4F8140282693AB394F8FC010328D4
:103C900024D025E0D4F8F41104F5827003291FD153
:103CA000D0E902218A420BD9531A83600846834225
:103CB00000D303469AB229462046FFF7FEFD0FE0E7
:103CC000D4F81402016929B194F8FC01032801D148
:103CD000204688472046FFF732FE01E02046904705
:103CE000002070BD0020704710B5012180F8FC1144
:103CF000D0F81422017952689047002010BDD0F806
:103D00002002FDF76ABA000010B5017861BB1749BF
:103D10000222C1F8EC03C0F820124FF0A040086066
:103D2000042048600020C1E90320C1E90502C86100
:103D3000086201224862C1E90B200846FDF778FDC0
:103D400020B14FF4AA710AA000F0C8FF80210748F3
:103D5000FDF7B8F9402200210448FDF7B7F98022A9
:103D600001210248FDF7B2F9002010BD940900209E
:103D70002E2E2F5553425F4445564943452F7573A8
:103D800062645F636F6E662E630000000A0601F0D6
:103D90007F01D0F82002C1EBC10100EB810002D508
:103DA00090F83A00704790F8FA0170470020704789
:103DB0000020704770B51D4613460024D0F820023D
:103DC0002A46FDF714FA30B1012801D0022801D0AB
:103DD000022400E00124204670BD10B50024D0F874
:103DE0002002FDF72EFA30B1012801D0022801D0BF
:103DF000022400E00124204610BD70B500220446D4
:103E000040231146FFF7D6FF40252B460022802194
:103E10002046C4F81051FFF7CDFF0120256284F839
:103E2000FC01D4F8180228B1D4F8140221794268B0
:103E300020469047002070BD90F8FD1180F8FC11DD
:103E40000020704710B590F8FC11032904D1D0F878
:103E50001412C96901B18847002010BD0174002007
:103E6000704710B50024D0F82002FDF795FD30B161
:103E7000012801D0022801D0022400E001242046BC
:103E800010BD70B5044600F50270054600F05FF8FD
:103E90000120C4F8F401B4F80E02C4F8F80194F853
:103EA000080210F01F010AD001290DD0022910D0FC
:103EB00000F08001204600F011F8002070BD294676
:103EC000204600F0AAF8F8E72946204600F09AF9C3
:103ED000F3E72946204600F027F9EEE710B5002465
:103EE000D0F82002FDF7D1F930B1012801D0022825
:103EF00001D0022400E00124204610BD10B50024AA
:103F0000D0F82002FDF761FD30B1012801D0022870
:103F100001D0022400E00124204610BD90F8FC11DD
:103F200080F8FD11042180F8FC110020704710B5C5
:103F30000024D0F82002FDF7D8F930B1012801D0D3
:103F4000022801D0022400E00124204610BD0A7896
:103F500002704A7842708A78CB7802EB0322428062
:103F60000A794B7902EB032282808A79C97902EBC4
:103F70000121C18070470246002011B1C2F814121D
:103F800070470220704710B5D0F8142202241AB1ED
:103F90001268904700B90024204610BD70B50E4647
:103FA0001A4D897804462970012928D894F8FC0113
:103FB000022802D0032822D105E099B103206160D4
:103FC00084F8FC0109E091B1606888420AD0C1B26E
:103FD0002046FFF76BFC297861602046FFF7D3FF8E
:103FE00002280CD02046BDE87040FFF7A8BC022094
:103FF00084F8FC0120466160FFF758FCF2E7314687
:104000002046BDE87040FFF768BC00004401002076
:1040100010B5FFF773FF002010BD2DE9F041002619
:104020004A783346062A11D009DC4FF001057AB3ED
:10403000012A5FD0032A56D0052A45D109E0082A73
:104040002AD0092A25D0A02A3ED168E0FFF7EAFC51
:1040500067E004468888C8B9C888B8B9887800F08D
:104060007F0794F8FC01032810D084F8FE713946CC
:104070002046FFF7F6FE2046FFF761FC1FB1022045
:1040800084F8FC014DE084F8FC514AE020461BE036
:1040900014E0FFF783FF44E0CA88012A14D190F8A6
:1040A000FC21022A02D0032A0ED104E0012200F1F1
:1040B0000801836014E00122011D11E090F8FC2149
:1040C000022A04D0032A02D0FFF707FC29E0C560CA
:1040D000D0F8041209B10321C160022200F10C01E1
:1040E000FFF720FC1DE004464888012819D1C4F8D8
:1040F00004520BE0044690F8FC01022801D003288A
:10410000C4D1488801280CD1C4F80432D4F8140270
:104110008268204690472046FFF711FC01E000F03E
:1041200093F83046BDE8F08170B50D460446287816
:1041300000260979C0F34110012806D06878A0B3A1
:1041400001281FD003283FD107E0D4F814022946E4
:10415000826820469047002070BD94F8FC01022838
:1041600017D003282CD1688828B921B1802902D022
:104170002046FFF7B3FED4F8140229468268204691
:10418000904713E094F8FC01022802D0032817D1CD
:1041900003E0C9B180291BD116E06888A0B94806A0
:1041A00004D02046FFF7F4FCE5E703E02046FFF7E4
:1041B000C6FB09E094F8FC01022807D003280BD0C5
:1041C00029462046FFF789FB304670BD4806FBD0E4
:1041D0002046FFF783FEF7E7080601F07F0004EBB7
:1041E000001501D5143501E005F582752046FFF76D
:1041F000CDFD00B101202860022229462046FFF7AC
:1042000091FBE1E770B5054690F8FC010C460328E8
:1042100003D02078C12812D00DE0207901280AD8D7
:10422000D5F81402826828469047E08850B928469D
:10423000FFF785FB06E02846FFF74FFB02E0284624
:1042400000F002F8002070BD38B5044688880D469D
:10425000042805D0052807D02046FFF73EFB38BDCF
:10426000D4F81002C16902E0D4F81002016A68466D
:1042700088470146BDF800000028F0D0EA88002AEF
:10428000EDD0824200D90246ADF800202046FFF76B
:1042900049FB38BD10B590B004460388084A09A10F
:1042A000684600F01DFD6846FBF7F9FF01466846C9
:1042B000FEF7D6FC2820208010B0064810BD000074
:1042C000EB5400085B25735D6C656E6774683A2576
:1042D000640A00006C00002010B590B0044603880A
:1042E000084A09A1684600F0FBFC6846FBF7D7FFC7
:1042F00001466846FEF7B4FC8E20208010B00648C8
:1043000010BD00000A5500085B25735D6C656E6783
:1043100074683A25640A00009400002010B590B03B
:10432000044603880A4A0BA1684600F0D9FC684697
:10433000FBF7B5FF01466846FEF792FC04482246AB
:1043400008490838FFF7ECFB10B0064810BD000024
:10435000D05400085B25735D6C656E6774683A2500
:10436000640A0000840D002030B54C781D4B0122FA
:104370000D78AA40012CD0F81C4818D044EA02421B
:10438000C0F81C280A7800EB4210D0F8002B120469
:104390000BD4D0F8002B0C89C4F30A042243C9784B
:1043A00043EA81410A43C0F8002B002030BD92B29D
:1043B0001443C0F81C480C7800EB4410D0F80029D6
:1043C0001204F2D4D0F800290D89C5F30A052A4356
:1043D000C978890441EA84510A431A43C0F8002984
:1043E000E3E7000000800010D0F800196FF30A0125
:1043F000C0F80019D0F80818C1F34101022905D10D
:10440000D0F8001941F00301C0F80019D0F80418E1
:1044100041F48071C0F804180020704770B504465C
:10442000049D06990D9801290CD0E06840F04000E9
:10443000E060204600F028F84FF48030A063012DA2
:1044400016D01DE0A16B21F48031A163E1680D4A13
:104450001140E160E16821F44011E160012803D1DD
:10446000E06840F48010E060204600F00DF8E6E7D8
:10447000A06840F00600A060A06840F02000A060A6
:10448000002070BDBFFFBDFF01220C4902E0521C9D
:104490008A420BD80369002BF9DA026942F0010263
:1044A0000261012204E0521C8A4201D903207047B4
:1044B0000369DB07F7D1002070470000400D0300BF
:1044C000F0B50D4604464F780126F206D3002D497B
:1044D000287804EB4010012F14D0D0F8007B27F48B
:1044E0000047C0F8007B287804EB4010C0F8002B90
:1044F000287804EB4010C0F8003B01202A7804EB38
:1045000042122BE0D0F8007927F40047C0F8007978
:10451000287804EB4010C0F80029287804EB4010FC
:10452000C0F8003901202A7804EB421202E0401C56
:10453000884211D8D2F808395B00F8D410212046FF
:1045400000F024FBD4F81C0829788E40B1B28843CF
:1045500014E0401C884201D90320F0BDD2F8083B8A
:10456000DB06F6D4D4F8040840F48060C4F80408EC
:10457000D4F81C0829788E4020EA0640C4F81C08AC
:104580000020F0BD400D030010B5D0F8041821F054
:104590000201C0F804180320FCF738F9002010BD10
:1045A00010B5D0F8041841F00201C0F80418032037
:1045B000FCF72CF9002010BD2DE9F0470E4604460B
:1045C000DDE90A0A0025DDF83C80089F5FEA080162
:1045D000A16B11D041F40021A1634FF00009C4F890
:1045E000009ED4F80018C4F80018012807D0D4F8A9
:1045F000000840F0030007E041F40011ECE7D4F8B4
:1046000000080BB140F00100C4F80008102120465A
:1046100000F0BCFA204600F0A9FA4846C4F8109809
:10462000C4F814984FF0FF31C4F81818C4F81C9857
:104630004FF0904CFF230FE004EB4511D1F8002917
:10464000002A02DAC1F800C901E0C1F80009C1F886
:104650001009C1F808396D1CAE42EDD800210FE0F9
:1046600004EB4112D2F8005B002D02DAC2F800CB55
:1046700001E0C2F8000BC2F8100BC2F8083B491C5D
:104680008E42EDD8D4F8101821F48071C4F81018B7
:10469000012F0AD11449C4F83018D4F83018134A3D
:1046A0001143C4F83018D4F83018A0616FF080407E
:1046B00060611FB9A06940F01000A061A0690C49B9
:1046C0000843A061BAF1000F03D0A06940F00800D0
:1046D000A061B8F1010F03D1A06906490843A061A8
:1046E0000020BDE8F0870000000180000300010009
:1046F00000383C8004000040816821F001018160A5
:104700000020704730B54D784D4C0B7800EB4313CB
:10471000012D28D0D3F8105B6FF31205C3F8105B9E
:104720000B7800EB4313D3F8105B2540C3F8105B04
:104730004B690BB18B684B610B7800EB4313D3F8DB
:10474000104B44F40024C3F8104B0B7800EB4313D8
:10475000D3F8104B8D68C5F312052C43C3F8104BEA
:10476000012A5CD061E04D69002DD3F810593BD08F
:104770006FF31205C3F810590B7800EB4313D3F80D
:1047800010592540C3F810594C698B689C4200D9D8
:104790004B610B7800EB4313D3F8104944F4002429
:1047A000C3F810490B7800EB4313D3F810494D6957
:1047B000C5F3120554EA0504C3F810490B7800EB61
:1047C0004313D3F8004944F00444C3F80049012AD4
:1047D0001ED04A6912B3D0F834280B7801219940D1
:1047E0000A43C0F8342829E02540C3F810590B7853
:1047F00000EB4313D3F8104944F40024C3F81049E4
:104800000B7800EB4313D3F810496FF31204D3E78E
:104810000A69097800EB4110C0F814290EE00B7802
:1048200000EB4313CA68C3F8142B097800EB41105E
:10483000D0F8001B41F00441C0F8001B002030BD3F
:10484000FFFF07E00023C0F8103BD0F8103B43F413
:104850000023C0F8103BD0F8103B43F01803C0F819
:10486000103BD0F8103B43F0C043C0F8103B012987
:1048700005D1C0F8142B4FF08021C0F8001B002098
:1048800070474B780A7800EB4212012B0BD0D2F81C
:10489000003B23F40013C2F8003BCA78032A17D068
:1048A000022A15D01DE0D2F8003923F40013C2F813
:1048B0000039CA78032A01D0022A12D1097800EB04
:1048C0004110D0F8001941F08051C0F8001908E0FB
:1048D000097800EB4110D0F8001B41F08051C0F87E
:1048E000001B002070474B780A7800EB4212012B26
:1048F00014D0D2F8003B002B05DBD2F8003B23F0AC
:104900008043C2F8003B097800EB4110D0F8001B4F
:1049100041F40011C0F8001B00207047D2F80039A4
:10492000002B05DBD2F8003923F08043C2F80039B0
:10493000097800EB4110D0F8001941F40011C0F8DB
:104940000019E9E778B54E786FF06045834C0B7835
:1049500000EB4313012E2FD0D3F8106B6FF3120628
:10496000C3F8106B0B7800EB4313D3F8106B2640A1
:10497000C3F8106B4B69002B7DD08C6823445B1E01
:10498000B3FBF4F39BB20C7800EB4414D4F8106B37
:1049900005EAC3452E43C4F8106B0C7800EB4414B1
:1049A000D4F8105B8E685E43C6F312031D43C4F84F
:1049B000105B012A73D0B2E04E6966B3D3F8106978
:1049C0006FF31206C3F810690B7800EB4313D3F8AA
:1049D00010692640C3F810694C698B681C44641E3A
:1049E000B4FBF3F305EAC3440B7800EB4313D3F8AD
:1049F00010592C43C3F810490B7800EB4313D3F83C
:104A000010494D69C5F312052C43C3F81049CB7802
:104A1000012B16D027E0D3F810592540C3F81059C0
:104A20000B7800EB4313D3F8104944F40024C3F887
:104A300010490B7800EB4313D3F810496FF31204BD
:104A40000FE00B7800EB4313D3F8104924F0C04477
:104A5000C3F810490B7800EB4313D3F8104944F026
:104A60000054C3F81049012A12D0CB78012B17D07B
:104A70004B692BB300E037E0D0F834380D780124CF
:104A8000AC402343C0F83438CB78012B08D017E072
:104A90000C7800EB44140B69C4F81439F4E738E0DF
:104AA000D0F80838DB050B7800EB4313D3F8004946
:104AB00002D444F0005401E044F08054C3F80049AB
:104AC0000B7800EB4313D3F8004944F00444C3F8D7
:104AD0000049CB78012B3ED100928A8A93B20A78A2
:104AE000C96800F0E7F836E00B7800EB4313D3F821
:104AF000104B8D68C5F312052C43C3F8104B0B788F
:104B000000EB4313D3F8104B44F40024C3F8104BCC
:104B10004FE70B7800EB4313CA68C3F8142BCA782D
:104B2000012A0FD1D0F80828D2050A7800EB4212EA
:104B3000D2F8003B02D443F0005301E043F080532D
:104B4000C2F8003B097800EB4110D0F8001B41F09F
:104B50000441C0F8001B002078BD0000FFFF07E003
:104B6000816841F00101816000207047002110221E
:104B70000261054A491C914201D90320704703692B
:104B8000DB06F7D400207047400D030000222023ED
:104B900043EA811101610549521C8A4201D903206F
:104BA000704703699B06F7D400207047400D03004F
:104BB0000021D0F8082812F0060F15D0D0F80828E8
:104BC000C2F34102012A0CD0D0F80828C2F34102F6
:104BD000032A06D0D0F80808C0F34100022802D00A
:104BE00002E0032100E0022108467047406900F01E
:104BF00001007047D0F81818D0F81C08084080B29F
:104C00007047D0F81818D0F81C080840000C7047FE
:104C1000D0F81038D0F83428CA4002F0010243EA34
:104C2000C21200EB4110D0F808091040704700EBA9
:104C30004111D1F8081BD0F81408084070474169A9
:104C400080690840704710B503460020D21C9208C6
:104C500003F5805303E01C6841F8044B401C90426C
:104C6000F9D3084610BD10B5C26822F0C042C26038
:104C7000012901D021B107E0C16841F0005102E0F3
:104C8000C16841F08041C1603220FBF7BFFD0020C8
:104C900010BDD0F8002822F4FE62C0F80028D0F839
:104CA00000284FF4FE6303EA01110A43C0F800280C
:104CB0000020704730B50024039D6DB9DB1C9B08B4
:104CC00000EB023000F5805004E000BF51F8042BE7
:104CD0000260641C9C42F9D3002030BDFEE7000056
:104CE0000FB4084B10B504A902AA039800F01CF8F1
:104CF000044602A9002000F048FA204610BC5DF8E6
:104D000014FB00008B51000802E008C8121F08C104
:104D1000002AFAD170477047002001E001C1121F3C
:104D2000002AFBD1704700002DE9FF4F8DB00F46E0
:104D30000546002606E025280BD0DDE90F12904736
:104D40006D1C761C28780028F5D111B03046BDE8DE
:104D5000F08F0024A246A1460122EC4900E0044362
:104D600015F8013F203B02FA03F00842F7D12878FA
:104D70002A2810D06FF02F022878A0F130010929DD
:104D800014D80AEB8A0102EB410144F0020400EB63
:104D9000010A6D1CF0E701CF5FEA000A03D544F475
:104DA0000054CAF1000A44F002046D1C28782E2831
:104DB00017D115F8010F44F004042A280ED06FF023
:104DC0002F022878A0F1300109290AD809EB8901BE
:104DD00002EB410100EB01096D1CF2E757F8049B5F
:104DE0006D1C28786C280FD006DC4C2817D068285A
:104DF0000DD06A2814D104E0742810D07A280FD17D
:104E00000DE044F400140AE044F4801401E044F49A
:104E100040146978814202D104F580146D1C6D1C28
:104E20002A786E2A1FD00CDC632A31D004DC002AD9
:104E30008BD0582A11D1A3E0642A68D0692A0CD1FA
:104E400065E0732A2ED004DC6F2A73D0702A04D157
:104E50009BE0752A6FD0782A6ED01046DDE90F12DC
:104E60009047761C50E1C4F30250022806D0032874
:104E700009D0042801CF09D0066045E101CFF11720
:104E8000C0E9006140E101CF06803DE106703BE1F1
:104E900017F8040B8DF8000000208DF80100EB4698
:104EA000012003E057F804BB4FF0FF3061074FF0DB
:104EB000000102D40DE008F10101884649450FDAEE
:104EC0008045F8DB1BF808100029F4D108E008F150
:104ED000010188468142FADB1BF808100029F6D14F
:104EE000DDE90F23AAEB08008146214600F036F9E0
:104EF000304400EB080604E0DDE90F121BF8010B5B
:104F00009047B8F10108F7D221464846F7E00A2158
:104F1000C4F302534FF0000B0891022B04D001CFD1
:104F2000C117032B09D00AE0FF1D27F00707F7E898
:104F3000020108E032E01FE020E000B2C117042BBC
:104F400001D140B2C117031E71F1000307DA4FF01F
:104F5000000CD0EB0C006CEB01012D2302E02305CB
:104F600004D52B238DF82430012303E0E30701D07F
:104F70002023F7E7984658E00A2110E010210EE0C0
:104F800010204FF0000B08900CE010214FF0000BA8
:104F900044F004044FF00809089103E008214FF0A1
:104FA000000B0891C4F30253022B04D001CF00215F
:104FB000032B06D006E0FF1D27F00707F7E80201E4
:104FC00003E080B2042B00D1C0B24FF000082307E9
:104FD0002BD5702A07D0DDF820C08CF0100C5CEACD
:104FE0000B0C05D00EE040238DF82430012308E09F
:104FF00050EA010306D030238DF824308DF82520A7
:1050000002239846DDF820C08CF0080C5CEA0B0CFB
:105010000BD150EA010301D1630706D530238DF887
:1050200024304FF00108A9F10109582A04D038A210
:105030000B9208AA0A920BE03AA2F9E75B46089A9B
:10504000FBF7BEF80B9B9B5C0A9A521E0A921370E8
:1050500050EA0102F2D10A98ADEB000000F1200BFA
:10506000600702D524F4803401E04FF00109D945EE
:1050700002DDA9EB0B0000E0002000EB0B01414436
:105080000890AAEB010AE00306D4DDE90F232146CC
:10509000504600F063F806444FF0000908E009A903
:1050A00011F80900DDE90F12904709F10109761C9A
:1050B000C145F4DBE0030CD5DDE90F232146504662
:1050C00000F04CF8064404E0DDE90F123020904770
:1050D000761C0899481E08900029F5DC08E00A981B
:1050E0000A990078491C0A91DDE90F129047761C55
:1050F000BBF10001ABF1010BF1DC21465046DDE9CB
:105100000F2300F019F806446D1C1BE60928010066
:10511000303132333435363738396162636465662D
:1051200000000000303132333435363738394142EF
:1051300043444546000000002DE9F04104460025A7
:105140001E461746880404D405E039462020B0479F
:105150006D1C641EF9D52846BDE8F0812DE9F041AB
:10516000044600251E469046C80301D5302700E0BE
:105170002027880404D505E041463846B0476D1C19
:10518000641EF9D52846BDE8F0810A68531C0B60FF
:105190001070704710B5002821D0114B0022001F5D
:1051A000196803E0814203D80A4649680029F9D109
:1051B00052B11368841A9C4204D1006818441060EC
:1051C000104602E0506000E0186039B102680B1A26
:1051D000934203D10B681A4402604968416010BDD4
:1051E000D4010020A4B0FBF7B3FEFDF745FFFDF7A7
:1051F00041FD88484FF0000A016841F40011016048
:105200000068524600F40010229051461020FBF72F
:1052100027FF1020FBF718FFFDF7E4FDFDF7FEFD6B
:10522000FDF718FEFDF750FEFDF734FEFF220821C2
:105230007948FBF716F87848FF2208210830FBF779
:1052400010F8754901220E397448FDF71DFBDFF88F
:10525000D0810022082144464046FBF7D3FB6E4D27
:105260002020183564232870112068706B480222B2
:1052700029465838FDF72AF8012208212046FBF775
:10528000C1FB002208212046FBF7BCFBA0202870B0
:1052900062483223012229465838FDF717F85F4843
:1052A00032230122A5F108015838FCF767FFA5F168
:1052B00008065CA132786846FFF712FD6846FAF7E7
:1052C000EEFF01466846FDF7CBFC0122082120468F
:1052D000FBF798FBA5F128094C4699F80100012835
:1052E00049D100273A4608214046FBF78BFBA9200D
:1052F0002870494949483223012218315838FCF7AF
:10530000E5FF454945483223012210315838FCF762
:1053100035FF3078012247EA002708214046FBF795
:1053200071FB002208214046FBF76CFBA820287087
:1053300039493A483223012218315838FCF7C6FF60
:10534000354936483223012210315838FCF716FF10
:10535000327838A13A4313466846FFF7C1FC6846E5
:10536000FAF79DFF01466846FDF77AFC0122082105
:105370004046FBF747FB2078012847D141033048DE
:10538000FBF73CFBFBF752F80028A5D1574684F801
:1053900000A06068A06062682049403101F500709B
:1053A000FAF73FFF6760A06881B22648FBF728F84C
:1053B00025A16846FFF794FC174F002425A13A5D0C
:1053C00020A8FFF78DFC20A96846FAF75CFFA0072C
:1053D000B0F1404F03D11EA16846FAF754FF641C98
:1053E000082CEBDB1AA16846FAF74DFF6846FAF77E
:1053F00056FF002801DB802800D98020642100FBB3
:1054000001F382B269460548FDF7CDFA6420FBF747
:10541000FDF961E73038024010000020D002002082
:10542000001002404354524C5F524547343A3078A2
:1054300025780A00583A25642830782578290A000A
:10544000000C024010050020554152542052583A99
:105450000A0000005B2532785D000000F0B50B30DB
:10546000154D20F007010024144A0FE003688B4219
:105470000BD38B4205D95E1A43184768C3E900670E
:1054800000E04368136002C004E0021D10680028B9
:10549000ECD12046002802D1286808B10020F0BDD8
:1054A000064A07481060074A121A22F00702C0E9AC
:1054B000002401202860D7E7D8010020D401002073
:1054C0008C1F0020883F00204D534654313030A0BF
:1054D000555342445F57696E5553424F535374724C
:1054E00044657363726970746F7200555342445F10
:1054F00057696E5553424F534665617475726544E2
:10550000657363726970746F7200555342445F57DC
:10551000696E5553424F5350726F7065727479447F
:10552000657363726970746F72000006101600066E
:10553000101600000000000000000102030406072E
:105540000809000000000102030400006C55000877
:1055500000000020DC010000100300088056000855
:10556000DC010020AC7D0000184D000801301379EB
:10557000391B08AD041AB9041AE10413013A1B08D7
:1055800055081A85041395421B08D904170403090A
:105590000412013202164002479102260201020360
:1055A000014228130104190B71071057494E555336
:1055B000423A8E281A05282A8409311228124412E8
:1055C00065127612691A63081249126E1A7408126B
:1055D0007212663A611212471A55163244324E124E
:1055E0007B1231123312451A420612361A30081A4B
:1055F0002D041A43161A450A1A34143A43141A4150
:10560000083A380A12451A462C1A441212341A372C
:10561000121A343612361232527D1371031B086B84
:10562000041A67041A9504299282109324F44B0AF1
:1056300006F42920140902202008010104C03209BF
:10564000043302FF1D07050102202C07058107090D
:1056500014202A40072A810713313714089F361473
:10566000080D3842081ADB0C1A5D041A7104C11ABD
:1056700019281A0D041A25041A01048B1D43200051
:040000050800018965
:00000001FF
